{
  "contractName": "AskMe",
  "abi": [
    {
      "constant": true,
      "inputs": [],
      "name": "owner",
      "outputs": [
        {
          "name": "",
          "type": "address"
        }
      ],
      "payable": false,
      "stateMutability": "view",
      "type": "function"
    },
    {
      "constant": false,
      "inputs": [
        {
          "name": "newOwner",
          "type": "address"
        }
      ],
      "name": "transferOwnership",
      "outputs": [],
      "payable": false,
      "stateMutability": "nonpayable",
      "type": "function"
    },
    {
      "inputs": [],
      "payable": false,
      "stateMutability": "nonpayable",
      "type": "constructor"
    },
    {
      "payable": true,
      "stateMutability": "payable",
      "type": "fallback"
    },
    {
      "anonymous": false,
      "inputs": [
        {
          "indexed": false,
          "name": "id",
          "type": "uint256"
        },
        {
          "indexed": false,
          "name": "sender",
          "type": "address"
        },
        {
          "indexed": false,
          "name": "reciver",
          "type": "address"
        },
        {
          "indexed": false,
          "name": "question",
          "type": "string"
        },
        {
          "indexed": false,
          "name": "configs",
          "type": "string"
        },
        {
          "indexed": false,
          "name": "payout",
          "type": "uint256"
        }
      ],
      "name": "DidSendQuestionEvent",
      "type": "event"
    },
    {
      "anonymous": false,
      "inputs": [
        {
          "indexed": false,
          "name": "id",
          "type": "uint256"
        },
        {
          "indexed": false,
          "name": "reciver",
          "type": "address"
        },
        {
          "indexed": false,
          "name": "sender",
          "type": "address"
        },
        {
          "indexed": false,
          "name": "payout",
          "type": "uint256"
        },
        {
          "indexed": false,
          "name": "answer",
          "type": "string"
        },
        {
          "indexed": false,
          "name": "configs",
          "type": "string"
        }
      ],
      "name": "DidAswerQuestionEvent",
      "type": "event"
    },
    {
      "anonymous": false,
      "inputs": [
        {
          "indexed": false,
          "name": "id",
          "type": "uint256"
        },
        {
          "indexed": false,
          "name": "reciver",
          "type": "address"
        },
        {
          "indexed": false,
          "name": "sender",
          "type": "address"
        },
        {
          "indexed": false,
          "name": "payout",
          "type": "uint256"
        },
        {
          "indexed": false,
          "name": "answer",
          "type": "string"
        },
        {
          "indexed": false,
          "name": "configs",
          "type": "string"
        }
      ],
      "name": "DidFreeAswerQuestionEvent",
      "type": "event"
    },
    {
      "anonymous": false,
      "inputs": [
        {
          "indexed": false,
          "name": "id",
          "type": "uint256"
        },
        {
          "indexed": false,
          "name": "reciver",
          "type": "address"
        },
        {
          "indexed": false,
          "name": "sender",
          "type": "address"
        }
      ],
      "name": "DidRejectQuestionEvent",
      "type": "event"
    },
    {
      "anonymous": false,
      "inputs": [
        {
          "indexed": false,
          "name": "id",
          "type": "uint256"
        },
        {
          "indexed": false,
          "name": "user",
          "type": "address"
        },
        {
          "indexed": false,
          "name": "amount",
          "type": "uint256"
        }
      ],
      "name": "DonatedQuestion",
      "type": "event"
    },
    {
      "constant": false,
      "inputs": [],
      "name": "withdraw",
      "outputs": [],
      "payable": false,
      "stateMutability": "nonpayable",
      "type": "function"
    },
    {
      "constant": false,
      "inputs": [
        {
          "name": "newManager",
          "type": "address"
        }
      ],
      "name": "setManager",
      "outputs": [],
      "payable": false,
      "stateMutability": "nonpayable",
      "type": "function"
    },
    {
      "constant": true,
      "inputs": [],
      "name": "getManager",
      "outputs": [
        {
          "name": "",
          "type": "address"
        }
      ],
      "payable": false,
      "stateMutability": "view",
      "type": "function"
    },
    {
      "constant": false,
      "inputs": [
        {
          "name": "newFee",
          "type": "uint256"
        }
      ],
      "name": "setFee",
      "outputs": [],
      "payable": false,
      "stateMutability": "nonpayable",
      "type": "function"
    },
    {
      "constant": true,
      "inputs": [],
      "name": "getFee",
      "outputs": [
        {
          "name": "",
          "type": "uint256"
        }
      ],
      "payable": false,
      "stateMutability": "view",
      "type": "function"
    },
    {
      "constant": true,
      "inputs": [],
      "name": "getMinimumProfit",
      "outputs": [
        {
          "name": "",
          "type": "uint256"
        }
      ],
      "payable": false,
      "stateMutability": "view",
      "type": "function"
    },
    {
      "constant": false,
      "inputs": [
        {
          "name": "profit",
          "type": "uint256"
        }
      ],
      "name": "setMinimumProfit",
      "outputs": [],
      "payable": false,
      "stateMutability": "nonpayable",
      "type": "function"
    },
    {
      "constant": true,
      "inputs": [],
      "name": "getMinimumFee",
      "outputs": [
        {
          "name": "",
          "type": "uint256"
        }
      ],
      "payable": false,
      "stateMutability": "view",
      "type": "function"
    },
    {
      "constant": false,
      "inputs": [
        {
          "name": "minFee",
          "type": "uint256"
        }
      ],
      "name": "setMinimumFee",
      "outputs": [],
      "payable": false,
      "stateMutability": "nonpayable",
      "type": "function"
    },
    {
      "constant": false,
      "inputs": [
        {
          "name": "reciver",
          "type": "address"
        },
        {
          "name": "question",
          "type": "string"
        },
        {
          "name": "configs",
          "type": "string"
        }
      ],
      "name": "askQuestion",
      "outputs": [
        {
          "name": "",
          "type": "uint256"
        }
      ],
      "payable": true,
      "stateMutability": "payable",
      "type": "function"
    },
    {
      "constant": false,
      "inputs": [
        {
          "name": "id",
          "type": "uint256"
        },
        {
          "name": "text",
          "type": "string"
        },
        {
          "name": "config",
          "type": "string"
        }
      ],
      "name": "answerQuestion",
      "outputs": [],
      "payable": false,
      "stateMutability": "nonpayable",
      "type": "function"
    },
    {
      "constant": false,
      "inputs": [
        {
          "name": "id",
          "type": "uint256"
        },
        {
          "name": "text",
          "type": "string"
        },
        {
          "name": "config",
          "type": "string"
        }
      ],
      "name": "freeAnswerQuestion",
      "outputs": [],
      "payable": false,
      "stateMutability": "nonpayable",
      "type": "function"
    },
    {
      "constant": false,
      "inputs": [
        {
          "name": "id",
          "type": "uint256"
        }
      ],
      "name": "rejectQuestion",
      "outputs": [],
      "payable": false,
      "stateMutability": "nonpayable",
      "type": "function"
    },
    {
      "constant": false,
      "inputs": [
        {
          "name": "id",
          "type": "uint256"
        }
      ],
      "name": "donateQuestion",
      "outputs": [],
      "payable": true,
      "stateMutability": "payable",
      "type": "function"
    }
  ],
  "bytecode": "0x608060405260006002556103e8600355600060045534801561002057600080fd5b50336000806101000a81548173ffffffffffffffffffffffffffffffffffffffff021916908373ffffffffffffffffffffffffffffffffffffffff16021790555073115bce73559ffcbd5a6374c988b8502c90e17273600160006101000a81548173ffffffffffffffffffffffffffffffffffffffff021916908373ffffffffffffffffffffffffffffffffffffffff160217905550611821806100c56000396000f3006080604052600436106100e6576000357c0100000000000000000000000000000000000000000000000000000000900463ffffffff168063182a75061461015057806334c2a2b81461017d5780633ccfd60b1461023657806348d52ad61461024d5780634cd370b91461027a578063525fd21c146102a557806369fe0e2d1461037b5780636d69d60c146103a85780638da5cb5b146103d5578063b49a81fa1461042c578063ced72f8714610457578063cf73fa2214610482578063d0ebdbe7146104a2578063d5009584146104e5578063f2fde38b1461053c578063f509c1c31461057f575b6000809054906101000a900473ffffffffffffffffffffffffffffffffffffffff1673ffffffffffffffffffffffffffffffffffffffff166108fc349081150290604051600060405180830381858888f1935050505015801561014d573d6000803e3d6000fd5b50005b34801561015c57600080fd5b5061017b60048036038101908080359060200190929190505050610638565b005b34801561018957600080fd5b5061023460048036038101908080359060200190929190803590602001908201803590602001908080601f0160208091040260200160405190810160405280939291908181526020018383808284378201915050505050509192919290803590602001908201803590602001908080601f016020809104026020016040519081016040528093929190818152602001838380828437820191505050505050919291929050505061069d565b005b34801561024257600080fd5b5061024b61097a565b005b34801561025957600080fd5b5061027860048036038101908080359060200190929190505050610a56565b005b34801561028657600080fd5b5061028f610c4f565b6040518082815260200191505060405180910390f35b610365600480360381019080803573ffffffffffffffffffffffffffffffffffffffff169060200190929190803590602001908201803590602001908080601f0160208091040260200160405190810160405280939291908181526020018383808284378201915050505050509192919290803590602001908201803590602001908080601f0160208091040260200160405190810160405280939291908181526020018383808284378201915050505050509192919290505050610c59565b6040518082815260200191505060405180910390f35b34801561038757600080fd5b506103a660048036038101908080359060200190929190505050610fb9565b005b3480156103b457600080fd5b506103d36004803603810190808035906020019092919050505061101e565b005b3480156103e157600080fd5b506103ea611083565b604051808273ffffffffffffffffffffffffffffffffffffffff1673ffffffffffffffffffffffffffffffffffffffff16815260200191505060405180910390f35b34801561043857600080fd5b506104416110a8565b6040518082815260200191505060405180910390f35b34801561046357600080fd5b5061046c6110b2565b6040518082815260200191505060405180910390f35b6104a0600480360381019080803590602001909291905050506110bc565b005b3480156104ae57600080fd5b506104e3600480360381019080803573ffffffffffffffffffffffffffffffffffffffff169060200190929190505050611223565b005b3480156104f157600080fd5b506104fa6112e8565b604051808273ffffffffffffffffffffffffffffffffffffffff1673ffffffffffffffffffffffffffffffffffffffff16815260200191505060405180910390f35b34801561054857600080fd5b5061057d600480360381019080803573ffffffffffffffffffffffffffffffffffffffff169060200190929190505050611312565b005b34801561058b57600080fd5b5061063660048036038101908080359060200190929190803590602001908201803590602001908080601f0160208091040260200160405190810160405280939291908181526020018383808284378201915050505050509192919290803590602001908201803590602001908080601f01602080910402602001604051908101604052809392919081815260200183838082843782019150505050505091929192905050506113e7565b005b6000809054906101000a900473ffffffffffffffffffffffffffffffffffffffff1673ffffffffffffffffffffffffffffffffffffffff163373ffffffffffffffffffffffffffffffffffffffff1614151561069357600080fd5b8060028190555050565b600080600160009054906101000a900473ffffffffffffffffffffffffffffffffffffffff1673ffffffffffffffffffffffffffffffffffffffff163373ffffffffffffffffffffffffffffffffffffffff161415156106fc57600080fd5b60058581548110151561070b57fe5b906000526020600020906003020191506000826002015411151561072e57600080fd5b81600201549050600082600201819055508160000160009054906101000a900473ffffffffffffffffffffffffffffffffffffffff1673ffffffffffffffffffffffffffffffffffffffff166108fc829081150290604051600060405180830381858888f193505050501580156107a9573d6000803e3d6000fd5b507f48cf3978b528750a6bc3aed0f75d0e225339a56e21c73b649416721426c4e441858360000160009054906101000a900473ffffffffffffffffffffffffffffffffffffffff168460010160009054906101000a900473ffffffffffffffffffffffffffffffffffffffff16848888604051808781526020018673ffffffffffffffffffffffffffffffffffffffff1673ffffffffffffffffffffffffffffffffffffffff1681526020018573ffffffffffffffffffffffffffffffffffffffff1673ffffffffffffffffffffffffffffffffffffffff1681526020018481526020018060200180602001838103835285818151815260200191508051906020019080838360005b838110156108cd5780820151818401526020810190506108b2565b50505050905090810190601f1680156108fa5780820380516001836020036101000a031916815260200191505b50838103825284818151815260200191508051906020019080838360005b83811015610933578082015181840152602081019050610918565b50505050905090810190601f1680156109605780820380516001836020036101000a031916815260200191505b509850505050505050505060405180910390a15050505050565b6000809054906101000a900473ffffffffffffffffffffffffffffffffffffffff1673ffffffffffffffffffffffffffffffffffffffff163373ffffffffffffffffffffffffffffffffffffffff161415156109d557600080fd5b6000809054906101000a900473ffffffffffffffffffffffffffffffffffffffff1673ffffffffffffffffffffffffffffffffffffffff166108fc3073ffffffffffffffffffffffffffffffffffffffff16319081150290604051600060405180830381858888f19350505050158015610a53573d6000803e3d6000fd5b50565b600080600160009054906101000a900473ffffffffffffffffffffffffffffffffffffffff1673ffffffffffffffffffffffffffffffffffffffff163373ffffffffffffffffffffffffffffffffffffffff16141515610ab557600080fd5b600583815481101515610ac457fe5b9060005260206000209060030201915060008260020154111515610ae757600080fd5b81600201549050600082600201819055508160010160009054906101000a900473ffffffffffffffffffffffffffffffffffffffff1673ffffffffffffffffffffffffffffffffffffffff166108fc829081150290604051600060405180830381858888f19350505050158015610b62573d6000803e3d6000fd5b507f898d23fd01fb9ed017c3373e7938d021e0cde5bfea5a2637e3aa3cbfc9aad6f9838360010160009054906101000a900473ffffffffffffffffffffffffffffffffffffffff168460000160009054906101000a900473ffffffffffffffffffffffffffffffffffffffff16604051808481526020018373ffffffffffffffffffffffffffffffffffffffff1673ffffffffffffffffffffffffffffffffffffffff1681526020018273ffffffffffffffffffffffffffffffffffffffff1673ffffffffffffffffffffffffffffffffffffffff168152602001935050505060405180910390a1505050565b6000600254905090565b6000806000610c666117a7565b6000610c71346116c4565b9350610c886004548561171190919063ffffffff16565b3410151515610c9657600080fd5b6000809054906101000a900473ffffffffffffffffffffffffffffffffffffffff1673ffffffffffffffffffffffffffffffffffffffff166108fc859081150290604051600060405180830381858888f19350505050158015610cfd573d6000803e3d6000fd5b50610d11843461173290919063ffffffff16565b92506060604051908101604052808973ffffffffffffffffffffffffffffffffffffffff1681526020013373ffffffffffffffffffffffffffffffffffffffff16815260200184815250915060016005839080600181540180825580915050906001820390600052602060002090600302016000909192909190915060008201518160000160006101000a81548173ffffffffffffffffffffffffffffffffffffffff021916908373ffffffffffffffffffffffffffffffffffffffff16021790555060208201518160010160006101000a81548173ffffffffffffffffffffffffffffffffffffffff021916908373ffffffffffffffffffffffffffffffffffffffff1602179055506040820151816002015550500390507fcdf33de433f2643e415f949928a30f64d36757d1b829504b6ac0926d4358b37e81338a8a8a88604051808781526020018673ffffffffffffffffffffffffffffffffffffffff1673ffffffffffffffffffffffffffffffffffffffff1681526020018573ffffffffffffffffffffffffffffffffffffffff1673ffffffffffffffffffffffffffffffffffffffff1681526020018060200180602001848152602001838103835286818151815260200191508051906020019080838360005b83811015610f05578082015181840152602081019050610eea565b50505050905090810190601f168015610f325780820380516001836020036101000a031916815260200191505b50838103825285818151815260200191508051906020019080838360005b83811015610f6b578082015181840152602081019050610f50565b50505050905090810190601f168015610f985780820380516001836020036101000a031916815260200191505b509850505050505050505060405180910390a1809450505050509392505050565b6000809054906101000a900473ffffffffffffffffffffffffffffffffffffffff1673ffffffffffffffffffffffffffffffffffffffff163373ffffffffffffffffffffffffffffffffffffffff1614151561101457600080fd5b8060038190555050565b6000809054906101000a900473ffffffffffffffffffffffffffffffffffffffff1673ffffffffffffffffffffffffffffffffffffffff163373ffffffffffffffffffffffffffffffffffffffff1614151561107957600080fd5b8060048190555050565b6000809054906101000a900473ffffffffffffffffffffffffffffffffffffffff1681565b6000600454905090565b6000600354905090565b60008060006110ca346116c4565b925082341115156110da57600080fd5b6005848154811015156110e957fe5b906000526020600020906003020191506000826002015411151561110c57600080fd5b6000809054906101000a900473ffffffffffffffffffffffffffffffffffffffff1673ffffffffffffffffffffffffffffffffffffffff166108fc6003549081150290604051600060405180830381858888f19350505050158015611175573d6000803e3d6000fd5b50611189833461173290919063ffffffff16565b90506111a281836002015461171190919063ffffffff16565b82600201819055507f14125b1746dc12261a5a8e25824bafb2c4e9cd695c276a94a4ce69af8902c6b4843383604051808481526020018373ffffffffffffffffffffffffffffffffffffffff1673ffffffffffffffffffffffffffffffffffffffff168152602001828152602001935050505060405180910390a150505050565b6000809054906101000a900473ffffffffffffffffffffffffffffffffffffffff1673ffffffffffffffffffffffffffffffffffffffff163373ffffffffffffffffffffffffffffffffffffffff1614151561127e57600080fd5b60008173ffffffffffffffffffffffffffffffffffffffff16141515156112a457600080fd5b80600160006101000a81548173ffffffffffffffffffffffffffffffffffffffff021916908373ffffffffffffffffffffffffffffffffffffffff16021790555050565b6000600160009054906101000a900473ffffffffffffffffffffffffffffffffffffffff16905090565b6000809054906101000a900473ffffffffffffffffffffffffffffffffffffffff1673ffffffffffffffffffffffffffffffffffffffff163373ffffffffffffffffffffffffffffffffffffffff1614151561136d57600080fd5b600073ffffffffffffffffffffffffffffffffffffffff168173ffffffffffffffffffffffffffffffffffffffff161415156113e457806000806101000a81548173ffffffffffffffffffffffffffffffffffffffff021916908373ffffffffffffffffffffffffffffffffffffffff1602179055505b50565b600080600160009054906101000a900473ffffffffffffffffffffffffffffffffffffffff1673ffffffffffffffffffffffffffffffffffffffff163373ffffffffffffffffffffffffffffffffffffffff1614151561144657600080fd5b60058581548110151561145557fe5b906000526020600020906003020191506000826002015411151561147857600080fd5b81600201549050600082600201819055508160010160009054906101000a900473ffffffffffffffffffffffffffffffffffffffff1673ffffffffffffffffffffffffffffffffffffffff166108fc829081150290604051600060405180830381858888f193505050501580156114f3573d6000803e3d6000fd5b507f502377bd7d2ffbc2ed3d1c302a3ea8dfed77fefe144a9dd774cdb055bb7f98de858360000160009054906101000a900473ffffffffffffffffffffffffffffffffffffffff168460010160009054906101000a900473ffffffffffffffffffffffffffffffffffffffff16848888604051808781526020018673ffffffffffffffffffffffffffffffffffffffff1673ffffffffffffffffffffffffffffffffffffffff1681526020018573ffffffffffffffffffffffffffffffffffffffff1673ffffffffffffffffffffffffffffffffffffffff1681526020018481526020018060200180602001838103835285818151815260200191508051906020019080838360005b838110156116175780820151818401526020810190506115fc565b50505050905090810190601f1680156116445780820380516001836020036101000a031916815260200191505b50838103825284818151815260200191508051906020019080838360005b8381101561167d578082015181840152602081019050611662565b50505050905090810190601f1680156116aa5780820380516001836020036101000a031916815260200191505b509850505050505050505060405180910390a15050505050565b6000806116f1620186a06116e36003548661174e90919063ffffffff16565b61178c90919063ffffffff16565b90506002548111156117055780915061170b565b60025491505b50919050565b600080828401905083811015151561172857600080fd5b8091505092915050565b600082821115151561174357600080fd5b818303905092915050565b60008060008414156117635760009150611785565b828402905082848281151561177457fe5b0414151561178157600080fd5b8091505b5092915050565b600080828481151561179a57fe5b0490508091505092915050565b606060405190810160405280600073ffffffffffffffffffffffffffffffffffffffff168152602001600073ffffffffffffffffffffffffffffffffffffffff1681526020016000815250905600a165627a7a723058209bcc353b5c23c819662da64d11286c4f4cc234c9885836909c25afefddd88b570029",
  "source": "pragma solidity ^0.4.18;\n\nimport \"./Ownable.sol\";\nimport \"./SafeMath.sol\";\n\ncontract AskMe is Ownable {\n    //libs\n    using SafeMath for uint;\n    //events\n    event DidSendQuestionEvent(uint id, address sender, address reciver, string question, string configs, uint payout);\n    event DidAswerQuestionEvent(uint id, address reciver, address sender, uint payout, string answer, string configs);\n    event DidFreeAswerQuestionEvent(uint id, address reciver, address sender, uint payout, string answer, string configs);\n    event DidRejectQuestionEvent(uint id, address reciver, address sender);\n    event DonatedQuestion(uint id, address user, uint amount);\n    //\n    struct QuestionObject {\n        address reciver;\n        address sender;\n        uint payout;\n    }\n    address private manager;\n    // uint private questionsCount;\n    uint private minimumFee = 0.0 ether;\n    uint private fee = 1000;//1000 == 1%\n    uint private minimumProfit = 0.0 ether;\n    \n    QuestionObject[] private questions;\n    constructor() public {\n        // manager = msg.sender;\n        manager = 0x115bCe73559ffcbd5A6374C988B8502C90E17273;\n    }\n\n    modifier onlyManager() {\n        require(msg.sender == manager);\n        _;\n    }\n\n    function () public payable {\n        owner.transfer(msg.value);\n    }\n\n    function withdraw() public onlyOwner {\n        owner.transfer(address(this).balance);\n    }\n    //managers\n    function setManager(address newManager) public onlyOwner {\n        require(newManager != 0x0);\n        manager = newManager;\n    }\n    function getManager() public view returns(address) {\n        return manager;\n    }\n    function setFee(uint newFee) public onlyOwner {\n        fee = newFee;\n    }\n    function getFee() public view returns(uint) {\n        return fee;\n    }\n    function getMinimumProfit() public view returns(uint) {\n        return minimumProfit;\n    }\n    function setMinimumProfit(uint profit) public onlyOwner {\n        minimumProfit = profit;\n    }\n    function getMinimumFee() public view returns(uint) {\n        return minimumFee;\n    }\n    function setMinimumFee(uint minFee) public onlyOwner {\n        minimumFee = minFee;\n    }\n    //\n    function calculateFee(uint value) private view returns(uint) {\n        uint feeValue = value.mul(fee).div(100000);\n        if (feeValue > minimumFee) {\n            return feeValue;\n        } else {\n            return minimumFee;\n        }\n    }\n\n    function askQuestion(address reciver, string question, string configs) public payable returns(uint) {\n        uint feeValue = calculateFee(msg.value);\n        require(msg.value >= feeValue.add(minimumProfit));\n        owner.transfer(feeValue);\n        uint payout = msg.value.sub(feeValue);\n        QuestionObject memory questionData = QuestionObject(reciver, msg.sender, payout);\n        uint index = questions.push(questionData) - 1;\n        emit DidSendQuestionEvent(index, msg.sender, reciver, question, configs, payout);\n        return index;\n    }\n\n    function answerQuestion(uint id, string text, string config) public onlyManager {\n        QuestionObject storage questionData = questions[id];\n        require(questionData.payout > 0);\n        uint payout = questionData.payout;\n        questionData.payout = 0;\n        \n        questionData.reciver.transfer(payout);\n        emit DidAswerQuestionEvent(id, questionData.reciver, questionData.sender, payout, text, config);\n    }\n\n    function freeAnswerQuestion(uint id, string text, string config) public onlyManager {\n        QuestionObject storage questionData = questions[id];\n        require(questionData.payout > 0);\n        uint payout = questionData.payout;\n        questionData.payout = 0;\n        \n        questionData.sender.transfer(payout);\n        emit DidFreeAswerQuestionEvent(id, questionData.reciver, questionData.sender, payout, text, config);\n    }\n    function rejectQuestion(uint id) public onlyManager {\n        QuestionObject storage questionData = questions[id];\n        require(questionData.payout > 0);\n        uint payout = questionData.payout;\n        questionData.payout = 0;\n        questionData.sender.transfer(payout);\n        emit DidRejectQuestionEvent(id, questionData.sender, questionData.reciver);\n    }\n    function donateQuestion(uint id) public payable {\n        uint feeValue = calculateFee(msg.value);\n        require(msg.value > feeValue);\n        QuestionObject storage questionData = questions[id];\n        require(questionData.payout > 0);\n        owner.transfer(fee);\n        uint userProfit = msg.value.sub(feeValue);\n        questionData.payout = questionData.payout.add(userProfit);\n        emit DonatedQuestion(id, msg.sender, userProfit);\n    }\n    // function cancelQuestion()\n}",
  "sourcePath": "/Users/yurii/Documents/Projects/Solidity/AskMe/contracts/AskMe.sol",
  "compiler": {
    "name": "solc",
    "version": "0.4.24+commit.e67f0147.Emscripten.clang"
  },
  "schemaVersion": "2.0.1",
  "updatedAt": "2018-12-31T10:55:47.023Z"
}