{
  "contractName": "AskMe",
  "abi": [
    {
      "constant": true,
      "inputs": [],
      "name": "owner",
      "outputs": [
        {
          "name": "",
          "type": "address"
        }
      ],
      "payable": false,
      "stateMutability": "view",
      "type": "function"
    },
    {
      "constant": false,
      "inputs": [
        {
          "name": "newOwner",
          "type": "address"
        }
      ],
      "name": "transferOwnership",
      "outputs": [],
      "payable": false,
      "stateMutability": "nonpayable",
      "type": "function"
    },
    {
      "inputs": [],
      "payable": false,
      "stateMutability": "nonpayable",
      "type": "constructor"
    },
    {
      "payable": true,
      "stateMutability": "payable",
      "type": "fallback"
    },
    {
      "anonymous": false,
      "inputs": [
        {
          "indexed": false,
          "name": "id",
          "type": "uint256"
        },
        {
          "indexed": false,
          "name": "sender",
          "type": "address"
        },
        {
          "indexed": false,
          "name": "reciver",
          "type": "string"
        },
        {
          "indexed": false,
          "name": "question",
          "type": "string"
        },
        {
          "indexed": false,
          "name": "configs",
          "type": "string"
        },
        {
          "indexed": false,
          "name": "payout",
          "type": "uint256"
        }
      ],
      "name": "DidSendQuestionEvent",
      "type": "event"
    },
    {
      "anonymous": false,
      "inputs": [
        {
          "indexed": false,
          "name": "id",
          "type": "uint256"
        },
        {
          "indexed": false,
          "name": "sender",
          "type": "string"
        },
        {
          "indexed": false,
          "name": "reciver",
          "type": "address"
        },
        {
          "indexed": false,
          "name": "payoutAddress",
          "type": "address"
        },
        {
          "indexed": false,
          "name": "answer",
          "type": "string"
        },
        {
          "indexed": false,
          "name": "configs",
          "type": "string"
        }
      ],
      "name": "DidAswerQuestionEvent",
      "type": "event"
    },
    {
      "anonymous": false,
      "inputs": [
        {
          "indexed": false,
          "name": "id",
          "type": "uint256"
        },
        {
          "indexed": false,
          "name": "sender",
          "type": "string"
        },
        {
          "indexed": false,
          "name": "user",
          "type": "address"
        }
      ],
      "name": "DidRejectQuestionEvent",
      "type": "event"
    },
    {
      "anonymous": false,
      "inputs": [
        {
          "indexed": false,
          "name": "id",
          "type": "uint256"
        },
        {
          "indexed": false,
          "name": "user",
          "type": "address"
        },
        {
          "indexed": false,
          "name": "amount",
          "type": "uint256"
        }
      ],
      "name": "DonatedQuestion",
      "type": "event"
    },
    {
      "constant": false,
      "inputs": [],
      "name": "withdraw",
      "outputs": [],
      "payable": false,
      "stateMutability": "nonpayable",
      "type": "function"
    },
    {
      "constant": false,
      "inputs": [
        {
          "name": "newManager",
          "type": "address"
        }
      ],
      "name": "setManager",
      "outputs": [],
      "payable": false,
      "stateMutability": "nonpayable",
      "type": "function"
    },
    {
      "constant": true,
      "inputs": [],
      "name": "getManager",
      "outputs": [
        {
          "name": "",
          "type": "address"
        }
      ],
      "payable": false,
      "stateMutability": "view",
      "type": "function"
    },
    {
      "constant": false,
      "inputs": [
        {
          "name": "newFee",
          "type": "uint256"
        }
      ],
      "name": "setFee",
      "outputs": [],
      "payable": false,
      "stateMutability": "nonpayable",
      "type": "function"
    },
    {
      "constant": true,
      "inputs": [],
      "name": "getFee",
      "outputs": [
        {
          "name": "",
          "type": "uint256"
        }
      ],
      "payable": false,
      "stateMutability": "view",
      "type": "function"
    },
    {
      "constant": true,
      "inputs": [],
      "name": "getMinimumProfit",
      "outputs": [
        {
          "name": "",
          "type": "uint256"
        }
      ],
      "payable": false,
      "stateMutability": "view",
      "type": "function"
    },
    {
      "constant": false,
      "inputs": [
        {
          "name": "profit",
          "type": "uint256"
        }
      ],
      "name": "setMinimumProfit",
      "outputs": [],
      "payable": false,
      "stateMutability": "nonpayable",
      "type": "function"
    },
    {
      "constant": false,
      "inputs": [
        {
          "name": "reciver",
          "type": "string"
        },
        {
          "name": "question",
          "type": "string"
        },
        {
          "name": "configs",
          "type": "string"
        }
      ],
      "name": "askQuestion",
      "outputs": [
        {
          "name": "",
          "type": "uint256"
        }
      ],
      "payable": true,
      "stateMutability": "payable",
      "type": "function"
    },
    {
      "constant": false,
      "inputs": [
        {
          "name": "id",
          "type": "uint256"
        },
        {
          "name": "sender",
          "type": "string"
        },
        {
          "name": "user",
          "type": "address"
        },
        {
          "name": "payoutAddress",
          "type": "address"
        },
        {
          "name": "text",
          "type": "string"
        },
        {
          "name": "config",
          "type": "string"
        }
      ],
      "name": "answerQuestion",
      "outputs": [],
      "payable": false,
      "stateMutability": "nonpayable",
      "type": "function"
    },
    {
      "constant": false,
      "inputs": [
        {
          "name": "id",
          "type": "uint256"
        },
        {
          "name": "sender",
          "type": "string"
        },
        {
          "name": "user",
          "type": "address"
        }
      ],
      "name": "rejectQuestion",
      "outputs": [],
      "payable": false,
      "stateMutability": "nonpayable",
      "type": "function"
    },
    {
      "constant": false,
      "inputs": [
        {
          "name": "id",
          "type": "uint256"
        }
      ],
      "name": "donateQuestion",
      "outputs": [],
      "payable": true,
      "stateMutability": "payable",
      "type": "function"
    }
  ],
  "bytecode": "0x60806040526000600355600060045534801561001a57600080fd5b50336000806101000a81548173ffffffffffffffffffffffffffffffffffffffff021916908373ffffffffffffffffffffffffffffffffffffffff16021790555073115bce73559ffcbd5a6374c988b8502c90e17273600160006101000a81548173ffffffffffffffffffffffffffffffffffffffff021916908373ffffffffffffffffffffffffffffffffffffffff16021790555061132c806100bf6000396000f3006080604052600436106100c5576000357c0100000000000000000000000000000000000000000000000000000000900463ffffffff16806338f798261461012f5780633ccfd60b146101c257806369fe0e2d146101d95780636d69d60c146102065780638d830e13146102335780638da5cb5b146103725780639c54bb35146103c9578063b49a81fa146104c5578063ced72f87146104f0578063cf73fa221461051b578063d0ebdbe71461053b578063d50095841461057e578063f2fde38b146105d5575b6000809054906101000a900473ffffffffffffffffffffffffffffffffffffffff1673ffffffffffffffffffffffffffffffffffffffff166108fc349081150290604051600060405180830381858888f1935050505015801561012c573d6000803e3d6000fd5b50005b34801561013b57600080fd5b506101c060048036038101908080359060200190929190803590602001908201803590602001908080601f0160208091040260200160405190810160405280939291908181526020018383808284378201915050505050509192919290803573ffffffffffffffffffffffffffffffffffffffff169060200190929190505050610618565b005b3480156101ce57600080fd5b506101d76107fe565b005b3480156101e557600080fd5b50610204600480360381019080803590602001909291905050506108da565b005b34801561021257600080fd5b506102316004803603810190808035906020019092919050505061093f565b005b34801561023f57600080fd5b5061037060048036038101908080359060200190929190803590602001908201803590602001908080601f0160208091040260200160405190810160405280939291908181526020018383808284378201915050505050509192919290803573ffffffffffffffffffffffffffffffffffffffff169060200190929190803573ffffffffffffffffffffffffffffffffffffffff169060200190929190803590602001908201803590602001908080601f0160208091040260200160405190810160405280939291908181526020018383808284378201915050505050509192919290803590602001908201803590602001908080601f01602080910402602001604051908101604052809392919081815260200183838082843782019150505050505091929192905050506109a4565b005b34801561037e57600080fd5b50610387610c9b565b604051808273ffffffffffffffffffffffffffffffffffffffff1673ffffffffffffffffffffffffffffffffffffffff16815260200191505060405180910390f35b6104af600480360381019080803590602001908201803590602001908080601f0160208091040260200160405190810160405280939291908181526020018383808284378201915050505050509192919290803590602001908201803590602001908080601f0160208091040260200160405190810160405280939291908181526020018383808284378201915050505050509192919290803590602001908201803590602001908080601f0160208091040260200160405190810160405280939291908181526020018383808284378201915050505050509192919290505050610cc0565b6040518082815260200191505060405180910390f35b3480156104d157600080fd5b506104da610f70565b6040518082815260200191505060405180910390f35b3480156104fc57600080fd5b50610505610f7a565b6040518082815260200191505060405180910390f35b61053960048036038101908080359060200190929190505050610f84565b005b34801561054757600080fd5b5061057c600480360381019080803573ffffffffffffffffffffffffffffffffffffffff1690602001909291905050506110ff565b005b34801561058a57600080fd5b506105936111c4565b604051808273ffffffffffffffffffffffffffffffffffffffff1673ffffffffffffffffffffffffffffffffffffffff16815260200191505060405180910390f35b3480156105e157600080fd5b50610616600480360381019080803573ffffffffffffffffffffffffffffffffffffffff1690602001909291905050506111ee565b005b6000600160009054906101000a900473ffffffffffffffffffffffffffffffffffffffff1673ffffffffffffffffffffffffffffffffffffffff163373ffffffffffffffffffffffffffffffffffffffff1614151561067657600080fd5b600060058581548110151561068757fe5b906000526020600020015411151561069e57600080fd5b6005848154811015156106ad57fe5b9060005260206000200154905060006005858154811015156106cb57fe5b90600052602060002001819055508173ffffffffffffffffffffffffffffffffffffffff166108fc829081150290604051600060405180830381858888f1935050505015801561071f573d6000803e3d6000fd5b507f54c505d05c6ef10624e083b56135753d284a93e961dee840e6f6e9d3398720e584848460405180848152602001806020018373ffffffffffffffffffffffffffffffffffffffff1673ffffffffffffffffffffffffffffffffffffffff168152602001828103825284818151815260200191508051906020019080838360005b838110156107bc5780820151818401526020810190506107a1565b50505050905090810190601f1680156107e95780820380516001836020036101000a031916815260200191505b5094505050505060405180910390a150505050565b6000809054906101000a900473ffffffffffffffffffffffffffffffffffffffff1673ffffffffffffffffffffffffffffffffffffffff163373ffffffffffffffffffffffffffffffffffffffff1614151561085957600080fd5b6000809054906101000a900473ffffffffffffffffffffffffffffffffffffffff1673ffffffffffffffffffffffffffffffffffffffff166108fc3073ffffffffffffffffffffffffffffffffffffffff16319081150290604051600060405180830381858888f193505050501580156108d7573d6000803e3d6000fd5b50565b6000809054906101000a900473ffffffffffffffffffffffffffffffffffffffff1673ffffffffffffffffffffffffffffffffffffffff163373ffffffffffffffffffffffffffffffffffffffff1614151561093557600080fd5b8060038190555050565b6000809054906101000a900473ffffffffffffffffffffffffffffffffffffffff1673ffffffffffffffffffffffffffffffffffffffff163373ffffffffffffffffffffffffffffffffffffffff1614151561099a57600080fd5b8060048190555050565b6000600160009054906101000a900473ffffffffffffffffffffffffffffffffffffffff1673ffffffffffffffffffffffffffffffffffffffff163373ffffffffffffffffffffffffffffffffffffffff16141515610a0257600080fd5b6000600588815481101515610a1357fe5b9060005260206000200154111515610a2a57600080fd5b600587815481101515610a3957fe5b906000526020600020015490506000600588815481101515610a5757fe5b90600052602060002001819055508373ffffffffffffffffffffffffffffffffffffffff166108fc829081150290604051600060405180830381858888f19350505050158015610aab573d6000803e3d6000fd5b507fc4e780ea6bbc9ae940414e70b27a4e3a4a3da5891e52c3efd701cdddafac76c187878787878760405180878152602001806020018673ffffffffffffffffffffffffffffffffffffffff1673ffffffffffffffffffffffffffffffffffffffff1681526020018573ffffffffffffffffffffffffffffffffffffffff1673ffffffffffffffffffffffffffffffffffffffff1681526020018060200180602001848103845289818151815260200191508051906020019080838360005b83811015610b85578082015181840152602081019050610b6a565b50505050905090810190601f168015610bb25780820380516001836020036101000a031916815260200191505b50848103835286818151815260200191508051906020019080838360005b83811015610beb578082015181840152602081019050610bd0565b50505050905090810190601f168015610c185780820380516001836020036101000a031916815260200191505b50848103825285818151815260200191508051906020019080838360005b83811015610c51578082015181840152602081019050610c36565b50505050905090810190601f168015610c7e5780820380516001836020036101000a031916815260200191505b50995050505050505050505060405180910390a150505050505050565b6000809054906101000a900473ffffffffffffffffffffffffffffffffffffffff1681565b600080610cda6004546003546112c390919063ffffffff16565b34111515610ce757600080fd5b6000809054906101000a900473ffffffffffffffffffffffffffffffffffffffff1673ffffffffffffffffffffffffffffffffffffffff166108fc6003549081150290604051600060405180830381858888f19350505050158015610d50573d6000803e3d6000fd5b506005610d68600354346112e490919063ffffffff16565b9080600181540180825580915050906001820390600052602060002001600090919290919091505590507f095ac2c0d8d0ba3d51dcde9e4b15176caf93336889adb17ae8593c81f2f93ae18133878787600587815481101515610dc757fe5b9060005260206000200154604051808781526020018673ffffffffffffffffffffffffffffffffffffffff1673ffffffffffffffffffffffffffffffffffffffff168152602001806020018060200180602001858152602001848103845288818151815260200191508051906020019080838360005b83811015610e58578082015181840152602081019050610e3d565b50505050905090810190601f168015610e855780820380516001836020036101000a031916815260200191505b50848103835287818151815260200191508051906020019080838360005b83811015610ebe578082015181840152602081019050610ea3565b50505050905090810190601f168015610eeb5780820380516001836020036101000a031916815260200191505b50848103825286818151815260200191508051906020019080838360005b83811015610f24578082015181840152602081019050610f09565b50505050905090810190601f168015610f515780820380516001836020036101000a031916815260200191505b50995050505050505050505060405180910390a1809150509392505050565b6000600454905090565b6000600354905090565b600060035434111515610f9657600080fd5b6000600583815481101515610fa757fe5b9060005260206000200154111515610fbe57600080fd5b6000809054906101000a900473ffffffffffffffffffffffffffffffffffffffff1673ffffffffffffffffffffffffffffffffffffffff166108fc6003549081150290604051600060405180830381858888f19350505050158015611027573d6000803e3d6000fd5b5061103d600354346112e490919063ffffffff16565b905061106b8160058481548110151561105257fe5b90600052602060002001546112c390919063ffffffff16565b60058381548110151561107a57fe5b90600052602060002001819055507f14125b1746dc12261a5a8e25824bafb2c4e9cd695c276a94a4ce69af8902c6b4823383604051808481526020018373ffffffffffffffffffffffffffffffffffffffff1673ffffffffffffffffffffffffffffffffffffffff168152602001828152602001935050505060405180910390a15050565b6000809054906101000a900473ffffffffffffffffffffffffffffffffffffffff1673ffffffffffffffffffffffffffffffffffffffff163373ffffffffffffffffffffffffffffffffffffffff1614151561115a57600080fd5b60008173ffffffffffffffffffffffffffffffffffffffff161415151561118057600080fd5b80600160006101000a81548173ffffffffffffffffffffffffffffffffffffffff021916908373ffffffffffffffffffffffffffffffffffffffff16021790555050565b6000600160009054906101000a900473ffffffffffffffffffffffffffffffffffffffff16905090565b6000809054906101000a900473ffffffffffffffffffffffffffffffffffffffff1673ffffffffffffffffffffffffffffffffffffffff163373ffffffffffffffffffffffffffffffffffffffff1614151561124957600080fd5b600073ffffffffffffffffffffffffffffffffffffffff168173ffffffffffffffffffffffffffffffffffffffff161415156112c057806000806101000a81548173ffffffffffffffffffffffffffffffffffffffff021916908373ffffffffffffffffffffffffffffffffffffffff1602179055505b50565b60008082840190508381101515156112da57600080fd5b8091505092915050565b60008282111515156112f557600080fd5b8183039050929150505600a165627a7a72305820560b23ac72c6d71ccd1e9b5559ebc6a961bb131046b0a881397873871b171bbb0029",
  "source": "pragma solidity ^0.4.18;\n\nimport \"./Ownable.sol\";\nimport \"./SafeMath.sol\";\n\ncontract AskMe is Ownable {\n    //libs\n    using SafeMath for uint;\n    //events\n    event DidSendQuestionEvent(uint id, address sender, string reciver, string question, string configs, uint payout);\n    event DidAswerQuestionEvent(uint id, string sender, address reciver, address payoutAddress, string answer, string configs);\n    event DidRejectQuestionEvent(uint id, string sender, address user);\n    event DonatedQuestion(uint id, address user, uint amount);\n    //\n    address private manager;\n    uint private questionsCount;\n    uint private fee = 0.0 ether;\n    uint private minimumProfit = 0.0 ether;\n    // mapping(uint => uint) private payouts;\n    uint[] private payouts;\n    constructor() public {\n        // manager = msg.sender;\n        manager = 0x115bCe73559ffcbd5A6374C988B8502C90E17273;\n    }\n\n    modifier onlyManager() {\n        require(msg.sender == manager);\n        _;\n    }\n\n\n    function () public payable {\n        owner.transfer(msg.value);\n    }\n\n    function withdraw() public onlyOwner {\n        owner.transfer(address(this).balance);\n    }\n    //managers\n    function setManager(address newManager) public onlyOwner {\n        require(newManager != 0x0);\n        manager = newManager;\n    }\n    function getManager() public view returns(address) {\n        return manager;\n    }\n    function setFee(uint newFee) public onlyOwner {\n        fee = newFee;\n    }\n    function getFee() public view returns(uint) {\n        return fee;\n    }\n    function getMinimumProfit() public view returns(uint) {\n        return minimumProfit;\n    }\n    function setMinimumProfit(uint profit) public onlyOwner {\n        minimumProfit = profit;\n    }\n    //\n    function askQuestion(string reciver, string question, string configs) public payable returns(uint) {\n        require(msg.value > fee.add(minimumProfit));\n        owner.transfer(fee);\n        uint index = payouts.push(msg.value.sub(fee));\n        emit DidSendQuestionEvent(index, msg.sender, reciver, question, configs, payouts[index]);\n        return index;\n    }\n\n    function answerQuestion(uint id, string sender, address user, address payoutAddress, string text, string config) public onlyManager {\n        require(payouts[id] > 0);\n        uint payout = payouts[id];\n        payouts[id] = 0;\n        payoutAddress.transfer(payout);\n        emit DidAswerQuestionEvent(id, sender, user, payoutAddress, text, config);\n    }\n    function rejectQuestion(uint id, string sender, address user) public onlyManager {\n        require(payouts[id] > 0);\n        uint payout = payouts[id];\n        payouts[id] = 0;\n        user.transfer(payout);\n        emit DidRejectQuestionEvent(id, sender, user);\n    }\n    function donateQuestion(uint id) public payable {\n        require(msg.value > fee);\n        require(payouts[id] > 0);\n        owner.transfer(fee);\n        uint userProfit = msg.value.sub(fee);\n        payouts[id] = payouts[id].add(userProfit);\n        emit DonatedQuestion(id, msg.sender, userProfit);\n    }\n    // function cancelQuestion()\n}",
  "sourcePath": "/Users/yurii/Documents/Projects/Solidity/AskMe/contracts/AskMe.sol",
  "compiler": {
    "name": "solc",
    "version": "0.4.24+commit.e67f0147.Emscripten.clang"
  },
  "schemaVersion": "2.0.1",
  "updatedAt": "2018-12-29T17:19:31.456Z"
}