{
  "contractName": "AskMe",
  "abi": [
    {
      "constant": true,
      "inputs": [],
      "name": "owner",
      "outputs": [
        {
          "name": "",
          "type": "address"
        }
      ],
      "payable": false,
      "stateMutability": "view",
      "type": "function"
    },
    {
      "constant": false,
      "inputs": [
        {
          "name": "newOwner",
          "type": "address"
        }
      ],
      "name": "transferOwnership",
      "outputs": [],
      "payable": false,
      "stateMutability": "nonpayable",
      "type": "function"
    },
    {
      "inputs": [],
      "payable": false,
      "stateMutability": "nonpayable",
      "type": "constructor"
    },
    {
      "anonymous": false,
      "inputs": [
        {
          "indexed": false,
          "name": "id",
          "type": "uint256"
        },
        {
          "indexed": false,
          "name": "sender",
          "type": "address"
        },
        {
          "indexed": false,
          "name": "reciver",
          "type": "string"
        },
        {
          "indexed": false,
          "name": "question",
          "type": "string"
        },
        {
          "indexed": false,
          "name": "configs",
          "type": "string"
        },
        {
          "indexed": false,
          "name": "payout",
          "type": "uint256"
        }
      ],
      "name": "DidSendQuestionEvent",
      "type": "event"
    },
    {
      "anonymous": false,
      "inputs": [
        {
          "indexed": false,
          "name": "id",
          "type": "uint256"
        },
        {
          "indexed": false,
          "name": "sender",
          "type": "string"
        },
        {
          "indexed": false,
          "name": "reciver",
          "type": "address"
        },
        {
          "indexed": false,
          "name": "payoutAddress",
          "type": "address"
        },
        {
          "indexed": false,
          "name": "answer",
          "type": "string"
        },
        {
          "indexed": false,
          "name": "configs",
          "type": "string"
        }
      ],
      "name": "DidAswerQuestionEvent",
      "type": "event"
    },
    {
      "anonymous": false,
      "inputs": [
        {
          "indexed": false,
          "name": "id",
          "type": "uint256"
        },
        {
          "indexed": false,
          "name": "sender",
          "type": "string"
        },
        {
          "indexed": false,
          "name": "user",
          "type": "address"
        }
      ],
      "name": "DidRejectQuestionEvent",
      "type": "event"
    },
    {
      "constant": false,
      "inputs": [
        {
          "name": "newManager",
          "type": "address"
        }
      ],
      "name": "setManager",
      "outputs": [],
      "payable": false,
      "stateMutability": "nonpayable",
      "type": "function"
    },
    {
      "constant": true,
      "inputs": [],
      "name": "getManager",
      "outputs": [
        {
          "name": "",
          "type": "address"
        }
      ],
      "payable": false,
      "stateMutability": "view",
      "type": "function"
    },
    {
      "constant": false,
      "inputs": [
        {
          "name": "newFee",
          "type": "uint256"
        }
      ],
      "name": "setFee",
      "outputs": [],
      "payable": false,
      "stateMutability": "nonpayable",
      "type": "function"
    },
    {
      "constant": true,
      "inputs": [],
      "name": "getFee",
      "outputs": [
        {
          "name": "",
          "type": "uint256"
        }
      ],
      "payable": false,
      "stateMutability": "view",
      "type": "function"
    },
    {
      "constant": true,
      "inputs": [],
      "name": "getMinimumProfit",
      "outputs": [
        {
          "name": "",
          "type": "uint256"
        }
      ],
      "payable": false,
      "stateMutability": "view",
      "type": "function"
    },
    {
      "constant": false,
      "inputs": [
        {
          "name": "profit",
          "type": "uint256"
        }
      ],
      "name": "setMinimumProfit",
      "outputs": [],
      "payable": false,
      "stateMutability": "nonpayable",
      "type": "function"
    },
    {
      "constant": false,
      "inputs": [
        {
          "name": "reciver",
          "type": "string"
        },
        {
          "name": "question",
          "type": "string"
        },
        {
          "name": "configs",
          "type": "string"
        }
      ],
      "name": "askQuestion",
      "outputs": [],
      "payable": true,
      "stateMutability": "payable",
      "type": "function"
    },
    {
      "constant": false,
      "inputs": [
        {
          "name": "id",
          "type": "uint256"
        },
        {
          "name": "sender",
          "type": "string"
        },
        {
          "name": "user",
          "type": "address"
        },
        {
          "name": "payoutAddress",
          "type": "address"
        },
        {
          "name": "text",
          "type": "string"
        },
        {
          "name": "config",
          "type": "string"
        }
      ],
      "name": "answerQuestion",
      "outputs": [],
      "payable": false,
      "stateMutability": "nonpayable",
      "type": "function"
    },
    {
      "constant": false,
      "inputs": [
        {
          "name": "id",
          "type": "uint256"
        },
        {
          "name": "sender",
          "type": "string"
        },
        {
          "name": "user",
          "type": "address"
        }
      ],
      "name": "rejectQuestion",
      "outputs": [],
      "payable": false,
      "stateMutability": "nonpayable",
      "type": "function"
    }
  ],
  "bytecode": "0x60806040526000600355600060045534801561001a57600080fd5b50336000806101000a81548173ffffffffffffffffffffffffffffffffffffffff021916908373ffffffffffffffffffffffffffffffffffffffff16021790555073115bce73559ffcbd5a6374c988b8502c90e17273600160006101000a81548173ffffffffffffffffffffffffffffffffffffffff021916908373ffffffffffffffffffffffffffffffffffffffff160217905550610f30806100bf6000396000f3006080604052600436106100af576000357c0100000000000000000000000000000000000000000000000000000000900463ffffffff16806338f79826146100b457806369fe0e2d146101475780636d69d60c146101745780638d830e13146101a15780638da5cb5b146102e05780639c54bb3514610337578063b49a81fa1461041f578063ced72f871461044a578063d0ebdbe714610475578063d5009584146104b8578063f2fde38b1461050f575b600080fd5b3480156100c057600080fd5b5061014560048036038101908080359060200190929190803590602001908201803590602001908080601f0160208091040260200160405190810160405280939291908181526020018383808284378201915050505050509192919290803573ffffffffffffffffffffffffffffffffffffffff169060200190929190505050610552565b005b34801561015357600080fd5b5061017260048036038101908080359060200190929190505050610704565b005b34801561018057600080fd5b5061019f60048036038101908080359060200190929190505050610769565b005b3480156101ad57600080fd5b506102de60048036038101908080359060200190929190803590602001908201803590602001908080601f0160208091040260200160405190810160405280939291908181526020018383808284378201915050505050509192919290803573ffffffffffffffffffffffffffffffffffffffff169060200190929190803573ffffffffffffffffffffffffffffffffffffffff169060200190929190803590602001908201803590602001908080601f0160208091040260200160405190810160405280939291908181526020018383808284378201915050505050509192919290803590602001908201803590602001908080601f01602080910402602001604051908101604052809392919081815260200183838082843782019150505050505091929192905050506107ce565b005b3480156102ec57600080fd5b506102f5610a91565b604051808273ffffffffffffffffffffffffffffffffffffffff1673ffffffffffffffffffffffffffffffffffffffff16815260200191505060405180910390f35b61041d600480360381019080803590602001908201803590602001908080601f0160208091040260200160405190810160405280939291908181526020018383808284378201915050505050509192919290803590602001908201803590602001908080601f0160208091040260200160405190810160405280939291908181526020018383808284378201915050505050509192919290803590602001908201803590602001908080601f0160208091040260200160405190810160405280939291908181526020018383808284378201915050505050509192919290505050610ab6565b005b34801561042b57600080fd5b50610434610cef565b6040518082815260200191505060405180910390f35b34801561045657600080fd5b5061045f610cf9565b6040518082815260200191505060405180910390f35b34801561048157600080fd5b506104b6600480360381019080803573ffffffffffffffffffffffffffffffffffffffff169060200190929190505050610d03565b005b3480156104c457600080fd5b506104cd610dc8565b604051808273ffffffffffffffffffffffffffffffffffffffff1673ffffffffffffffffffffffffffffffffffffffff16815260200191505060405180910390f35b34801561051b57600080fd5b50610550600480360381019080803573ffffffffffffffffffffffffffffffffffffffff169060200190929190505050610df2565b005b6000600160009054906101000a900473ffffffffffffffffffffffffffffffffffffffff1673ffffffffffffffffffffffffffffffffffffffff163373ffffffffffffffffffffffffffffffffffffffff161415156105b057600080fd5b60056000858152602001908152602001600020549050600060056000868152602001908152602001600020819055508173ffffffffffffffffffffffffffffffffffffffff166108fc829081150290604051600060405180830381858888f19350505050158015610625573d6000803e3d6000fd5b507f54c505d05c6ef10624e083b56135753d284a93e961dee840e6f6e9d3398720e584848460405180848152602001806020018373ffffffffffffffffffffffffffffffffffffffff1673ffffffffffffffffffffffffffffffffffffffff168152602001828103825284818151815260200191508051906020019080838360005b838110156106c25780820151818401526020810190506106a7565b50505050905090810190601f1680156106ef5780820380516001836020036101000a031916815260200191505b5094505050505060405180910390a150505050565b6000809054906101000a900473ffffffffffffffffffffffffffffffffffffffff1673ffffffffffffffffffffffffffffffffffffffff163373ffffffffffffffffffffffffffffffffffffffff1614151561075f57600080fd5b8060038190555050565b6000809054906101000a900473ffffffffffffffffffffffffffffffffffffffff1673ffffffffffffffffffffffffffffffffffffffff163373ffffffffffffffffffffffffffffffffffffffff161415156107c457600080fd5b8060048190555050565b6000600160009054906101000a900473ffffffffffffffffffffffffffffffffffffffff1673ffffffffffffffffffffffffffffffffffffffff163373ffffffffffffffffffffffffffffffffffffffff1614151561082c57600080fd5b60056000888152602001908152602001600020549050600060056000898152602001908152602001600020819055508373ffffffffffffffffffffffffffffffffffffffff166108fc829081150290604051600060405180830381858888f193505050501580156108a1573d6000803e3d6000fd5b507fc4e780ea6bbc9ae940414e70b27a4e3a4a3da5891e52c3efd701cdddafac76c187878787878760405180878152602001806020018673ffffffffffffffffffffffffffffffffffffffff1673ffffffffffffffffffffffffffffffffffffffff1681526020018573ffffffffffffffffffffffffffffffffffffffff1673ffffffffffffffffffffffffffffffffffffffff1681526020018060200180602001848103845289818151815260200191508051906020019080838360005b8381101561097b578082015181840152602081019050610960565b50505050905090810190601f1680156109a85780820380516001836020036101000a031916815260200191505b50848103835286818151815260200191508051906020019080838360005b838110156109e15780820151818401526020810190506109c6565b50505050905090810190601f168015610a0e5780820380516001836020036101000a031916815260200191505b50848103825285818151815260200191508051906020019080838360005b83811015610a47578082015181840152602081019050610a2c565b50505050905090810190601f168015610a745780820380516001836020036101000a031916815260200191505b50995050505050505050505060405180910390a150505050505050565b6000809054906101000a900473ffffffffffffffffffffffffffffffffffffffff1681565b610acd600454600354610ec790919063ffffffff16565b34111515610ada57600080fd5b6001600260008282540192505081905550610b0060035434610ee890919063ffffffff16565b600560006002548152602001908152602001600020819055507f095ac2c0d8d0ba3d51dcde9e4b15176caf93336889adb17ae8593c81f2f93ae16002543385858560056000600254815260200190815260200160002054604051808781526020018673ffffffffffffffffffffffffffffffffffffffff1673ffffffffffffffffffffffffffffffffffffffff168152602001806020018060200180602001858152602001848103845288818151815260200191508051906020019080838360005b83811015610bdd578082015181840152602081019050610bc2565b50505050905090810190601f168015610c0a5780820380516001836020036101000a031916815260200191505b50848103835287818151815260200191508051906020019080838360005b83811015610c43578082015181840152602081019050610c28565b50505050905090810190601f168015610c705780820380516001836020036101000a031916815260200191505b50848103825286818151815260200191508051906020019080838360005b83811015610ca9578082015181840152602081019050610c8e565b50505050905090810190601f168015610cd65780820380516001836020036101000a031916815260200191505b50995050505050505050505060405180910390a1505050565b6000600454905090565b6000600354905090565b6000809054906101000a900473ffffffffffffffffffffffffffffffffffffffff1673ffffffffffffffffffffffffffffffffffffffff163373ffffffffffffffffffffffffffffffffffffffff16141515610d5e57600080fd5b60008173ffffffffffffffffffffffffffffffffffffffff1614151515610d8457600080fd5b80600160006101000a81548173ffffffffffffffffffffffffffffffffffffffff021916908373ffffffffffffffffffffffffffffffffffffffff16021790555050565b6000600160009054906101000a900473ffffffffffffffffffffffffffffffffffffffff16905090565b6000809054906101000a900473ffffffffffffffffffffffffffffffffffffffff1673ffffffffffffffffffffffffffffffffffffffff163373ffffffffffffffffffffffffffffffffffffffff16141515610e4d57600080fd5b600073ffffffffffffffffffffffffffffffffffffffff168173ffffffffffffffffffffffffffffffffffffffff16141515610ec457806000806101000a81548173ffffffffffffffffffffffffffffffffffffffff021916908373ffffffffffffffffffffffffffffffffffffffff1602179055505b50565b6000808284019050838110151515610ede57600080fd5b8091505092915050565b6000828211151515610ef957600080fd5b8183039050929150505600a165627a7a723058205309173ea620d3673c70d91f18a60395754fb097b0b4bab963e340f448a743e30029",
  "source": "pragma solidity ^0.4.18;\n\nimport \"./Ownable.sol\";\nimport \"./SafeMath.sol\";\n\ncontract AskMe is Ownable {\n    //libs\n    using SafeMath for uint;\n    //events\n    event DidSendQuestionEvent(uint id, address sender, string reciver, string question, string configs, uint payout);\n    event DidAswerQuestionEvent(uint id, string sender, address reciver, address payoutAddress, string answer, string configs);\n    event DidRejectQuestionEvent(uint id, string sender, address user);\n    //\n    address private manager;\n    uint private questionsCount;\n    uint private fee = 0.0 ether;\n    uint private minimumProfit = 0.0 ether;\n    mapping(uint => uint) private payouts;\n    constructor() public {\n        // manager = msg.sender;\n        manager = 0x115bCe73559ffcbd5A6374C988B8502C90E17273;\n    }\n\n    modifier onlyManager() {\n        require(msg.sender == manager);\n        _;\n    }\n\n    //managers\n    function setManager(address newManager) public onlyOwner {\n        require(newManager != 0x0);\n        manager = newManager;\n    }\n    function getManager() public view returns(address) {\n        return manager;\n    }\n    function setFee(uint newFee) public onlyOwner {\n        fee = newFee;\n    }\n    function getFee() public view returns(uint) {\n        return fee;\n    }\n    function getMinimumProfit() public view returns(uint) {\n        return minimumProfit;\n    }\n    function setMinimumProfit(uint profit) public onlyOwner {\n        minimumProfit = profit;\n    }\n    //\n    function askQuestion(string reciver, string question, string configs) public payable {\n        require(msg.value > fee.add(minimumProfit));\n        questionsCount += 1;\n        payouts[questionsCount] = msg.value.sub(fee);\n        emit DidSendQuestionEvent(questionsCount, msg.sender, reciver, question, configs, payouts[questionsCount]);\n    }\n\n    function answerQuestion(uint id, string sender, address user, address payoutAddress, string text, string config) public onlyManager {\n        uint payout = payouts[id];\n        payouts[id] = 0;\n        payoutAddress.transfer(payout);\n        emit DidAswerQuestionEvent(id, sender, user, payoutAddress, text, config);\n    }\n    function rejectQuestion(uint id, string sender, address user) public onlyManager {\n        uint payout = payouts[id];\n        payouts[id] = 0;\n        user.transfer(payout);\n        emit DidRejectQuestionEvent(id, sender, user);\n    }\n    // function cancelQuestion()\n}",
  "sourcePath": "/Users/yurii/Documents/Projects/Solidity/AskMe/contracts/AskMe.sol",
  "compiler": {
    "name": "solc",
    "version": "0.4.24+commit.e67f0147.Emscripten.clang"
  },
  "schemaVersion": "2.0.1",
  "updatedAt": "2018-12-14T05:47:02.290Z"
}